{
  "_format": "hh-sol-artifact-1",
  "contractName": "Marketplace",
  "sourceName": "contracts/MarketPlace.sol",
  "abi": [
    {
      "inputs": [
        {
          "internalType": "address",
          "name": "_tokenAddress",
          "type": "address"
        },
        {
          "internalType": "address",
          "name": "_nftAddress",
          "type": "address"
        }
      ],
      "stateMutability": "nonpayable",
      "type": "constructor"
    },
    {
      "inputs": [],
      "name": "EnforcedPause",
      "type": "error"
    },
    {
      "inputs": [],
      "name": "ExpectedPause",
      "type": "error"
    },
    {
      "inputs": [
        {
          "internalType": "address",
          "name": "owner",
          "type": "address"
        }
      ],
      "name": "OwnableInvalidOwner",
      "type": "error"
    },
    {
      "inputs": [
        {
          "internalType": "address",
          "name": "account",
          "type": "address"
        }
      ],
      "name": "OwnableUnauthorizedAccount",
      "type": "error"
    },
    {
      "anonymous": false,
      "inputs": [
        {
          "indexed": false,
          "internalType": "uint256",
          "name": "id",
          "type": "uint256"
        },
        {
          "indexed": false,
          "internalType": "uint256",
          "name": "nftId",
          "type": "uint256"
        },
        {
          "indexed": false,
          "internalType": "uint256",
          "name": "price",
          "type": "uint256"
        },
        {
          "indexed": false,
          "internalType": "address",
          "name": "seller",
          "type": "address"
        }
      ],
      "name": "ItemListed",
      "type": "event"
    },
    {
      "anonymous": false,
      "inputs": [
        {
          "indexed": false,
          "internalType": "uint256",
          "name": "id",
          "type": "uint256"
        },
        {
          "indexed": false,
          "internalType": "uint256",
          "name": "nftId",
          "type": "uint256"
        },
        {
          "indexed": false,
          "internalType": "uint256",
          "name": "price",
          "type": "uint256"
        },
        {
          "indexed": false,
          "internalType": "address",
          "name": "seller",
          "type": "address"
        },
        {
          "indexed": false,
          "internalType": "address",
          "name": "buyer",
          "type": "address"
        }
      ],
      "name": "ItemSold",
      "type": "event"
    },
    {
      "anonymous": false,
      "inputs": [
        {
          "indexed": true,
          "internalType": "address",
          "name": "previousOwner",
          "type": "address"
        },
        {
          "indexed": true,
          "internalType": "address",
          "name": "newOwner",
          "type": "address"
        }
      ],
      "name": "OwnershipTransferred",
      "type": "event"
    },
    {
      "anonymous": false,
      "inputs": [
        {
          "indexed": false,
          "internalType": "address",
          "name": "account",
          "type": "address"
        }
      ],
      "name": "Paused",
      "type": "event"
    },
    {
      "anonymous": false,
      "inputs": [
        {
          "indexed": false,
          "internalType": "address",
          "name": "account",
          "type": "address"
        }
      ],
      "name": "Unpaused",
      "type": "event"
    },
    {
      "inputs": [
        {
          "internalType": "uint256",
          "name": "_id",
          "type": "uint256"
        }
      ],
      "name": "buyItem",
      "outputs": [],
      "stateMutability": "nonpayable",
      "type": "function"
    },
    {
      "inputs": [
        {
          "internalType": "uint256",
          "name": "_id",
          "type": "uint256"
        }
      ],
      "name": "cancelListing",
      "outputs": [],
      "stateMutability": "nonpayable",
      "type": "function"
    },
    {
      "inputs": [],
      "name": "itemCount",
      "outputs": [
        {
          "internalType": "uint256",
          "name": "",
          "type": "uint256"
        }
      ],
      "stateMutability": "view",
      "type": "function"
    },
    {
      "inputs": [
        {
          "internalType": "uint256",
          "name": "",
          "type": "uint256"
        }
      ],
      "name": "items",
      "outputs": [
        {
          "internalType": "uint256",
          "name": "id",
          "type": "uint256"
        },
        {
          "internalType": "uint256",
          "name": "nftId",
          "type": "uint256"
        },
        {
          "internalType": "uint256",
          "name": "price",
          "type": "uint256"
        },
        {
          "internalType": "address payable",
          "name": "seller",
          "type": "address"
        },
        {
          "internalType": "bool",
          "name": "isSold",
          "type": "bool"
        }
      ],
      "stateMutability": "view",
      "type": "function"
    },
    {
      "inputs": [
        {
          "internalType": "uint256",
          "name": "_nftId",
          "type": "uint256"
        },
        {
          "internalType": "uint256",
          "name": "_price",
          "type": "uint256"
        }
      ],
      "name": "listItem",
      "outputs": [],
      "stateMutability": "nonpayable",
      "type": "function"
    },
    {
      "inputs": [],
      "name": "nftContract",
      "outputs": [
        {
          "internalType": "contract IERC721",
          "name": "",
          "type": "address"
        }
      ],
      "stateMutability": "view",
      "type": "function"
    },
    {
      "inputs": [],
      "name": "owner",
      "outputs": [
        {
          "internalType": "address",
          "name": "",
          "type": "address"
        }
      ],
      "stateMutability": "view",
      "type": "function"
    },
    {
      "inputs": [],
      "name": "pause",
      "outputs": [],
      "stateMutability": "nonpayable",
      "type": "function"
    },
    {
      "inputs": [],
      "name": "paused",
      "outputs": [
        {
          "internalType": "bool",
          "name": "",
          "type": "bool"
        }
      ],
      "stateMutability": "view",
      "type": "function"
    },
    {
      "inputs": [],
      "name": "renounceOwnership",
      "outputs": [],
      "stateMutability": "nonpayable",
      "type": "function"
    },
    {
      "inputs": [],
      "name": "token",
      "outputs": [
        {
          "internalType": "contract IERC20",
          "name": "",
          "type": "address"
        }
      ],
      "stateMutability": "view",
      "type": "function"
    },
    {
      "inputs": [
        {
          "internalType": "address",
          "name": "newOwner",
          "type": "address"
        }
      ],
      "name": "transferOwnership",
      "outputs": [],
      "stateMutability": "nonpayable",
      "type": "function"
    },
    {
      "inputs": [],
      "name": "unpause",
      "outputs": [],
      "stateMutability": "nonpayable",
      "type": "function"
    },
    {
      "inputs": [
        {
          "internalType": "uint256",
          "name": "_id",
          "type": "uint256"
        },
        {
          "internalType": "uint256",
          "name": "_newPrice",
          "type": "uint256"
        }
      ],
      "name": "updateItemPrice",
      "outputs": [],
      "stateMutability": "nonpayable",
      "type": "function"
    }
  ],
  "bytecode": "0x608060405234801561000f575f80fd5b50604051610d65380380610d6583398101604081905261002e916100f8565b338061005357604051631e4fbdf760e01b81525f600482015260240160405180910390fd5b61005c8161008e565b50600180546001600160a01b039384166001600160a01b03199182161790915560028054929093169116179055610129565b5f80546001600160a01b038381166001600160a01b0319831681178455604051919092169283917f8be0079c531659141344cd1fd0a4f28419497f9722a3daafe3b4186f6b6457e09190a35050565b80516001600160a01b03811681146100f3575f80fd5b919050565b5f8060408385031215610109575f80fd5b610112836100dd565b9150610120602084016100dd565b90509250929050565b610c2f806101365f395ff3fe608060405234801561000f575f80fd5b50600436106100e5575f3560e01c8063883efa6711610088578063d56d229d11610063578063d56d229d14610216578063e7fb74c714610229578063f2fde38b1461023c578063fc0c546a1461024f575f80fd5b8063883efa67146101615780638da5cb5b14610174578063bfb231d214610198575f80fd5b80635c975abb116100c35780635c975abb146101195780636bfb0d011461013a578063715018a6146101515780638456cb5914610159575f80fd5b80632769b96b146100e9578063305a67a8146100fe5780633f4ba83a14610111575b5f80fd5b6100fc6100f7366004610b03565b610262565b005b6100fc61010c366004610b23565b61039f565b6100fc6104aa565b5f54600160a01b900460ff1660405190151581526020015b60405180910390f35b61014360045481565b604051908152602001610131565b6100fc6104bc565b6100fc6104cd565b6100fc61016f366004610b03565b6104dd565b5f546001600160a01b03165b6040516001600160a01b039091168152602001610131565b6101e36101a6366004610b23565b600360208190525f91825260409091208054600182015460028301549290930154909291906001600160a01b03811690600160a01b900460ff1685565b604080519586526020860194909452928401919091526001600160a01b031660608301521515608082015260a001610131565b600254610180906001600160a01b031681565b6100fc610237366004610b23565b6106c6565b6100fc61024a366004610b4e565b610962565b600154610180906001600160a01b031681565b5f8211801561027357506004548211155b6102985760405162461bcd60e51b815260040161028f90610b70565b60405180910390fd5b5f828152600360208190526040909120908101546001600160a01b031633146103035760405162461bcd60e51b815260206004820152601d60248201527f536164656365207361746963692067756e63656c6c65796562696c6972000000604482015260640161028f565b6003810154600160a01b900460ff16156103585760405162461bcd60e51b815260206004820152601660248201527529b0ba34b636b4b9903ab93ab7103232b3b4b9b6b2bd60511b604482015260640161028f565b5f82116103985760405162461bcd60e51b815260206004820152600e60248201526d2334bcb0ba10181037b630b6b0bd60911b604482015260640161028f565b6002015550565b5f811180156103b057506004548111155b6103cc5760405162461bcd60e51b815260040161028f90610b70565b5f818152600360208190526040909120908101546001600160a01b031633146104375760405162461bcd60e51b815260206004820152601c60248201527f5361646563652073617469636920697074616c2065646562696c697200000000604482015260640161028f565b6003810154600160a01b900460ff16156104935760405162461bcd60e51b815260206004820152601c60248201527f536174696c6d6973207572756e20697074616c206564696c656d657a00000000604482015260640161028f565b600301805460ff60a01b1916600160a01b17905550565b6104b261099f565b6104ba6109cb565b565b6104c461099f565b6104ba5f610a1f565b6104d561099f565b6104ba610a6e565b6104e5610ab0565b5f81116105255760405162461bcd60e51b815260206004820152600e60248201526d2334bcb0ba10181037b630b6b0bd60911b604482015260640161028f565b6002546040516331a9108f60e11b81526004810184905233916001600160a01b031690636352211e90602401602060405180830381865afa15801561056c573d5f803e3d5ffd5b505050506040513d601f19601f820116820180604052508101906105909190610b9b565b6001600160a01b0316146105e65760405162461bcd60e51b815260206004820152601c60248201527f4275204e4654276e696e2073616869626920646567696c73696e697a00000000604482015260640161028f565b60048054905f6105f583610bb6565b90915550506040805160a0810182526004805480835260208084018781528486018781523360608088018281525f6080808b018281529882526003808952918c90209a518b55955160018b0155935160028a01555197909201805495511515600160a01b026001600160a81b03199096166001600160a01b03909816979097179490941790955592548551908152908101879052938401859052918301919091527f5bc1dfc7136db3113acb6dad2e291dcf149405ca07fcec667fa5e1fa7f430f9891015b60405180910390a15050565b6106ce610ab0565b5f811180156106df57506004548111155b6106fb5760405162461bcd60e51b815260040161028f90610b70565b5f81815260036020819052604090912090810154600160a01b900460ff161561075b5760405162461bcd60e51b81526020600482015260126024820152715572756e207a6174656e20736174696c646960701b604482015260640161028f565b6003810154336001600160a01b03909116036107b95760405162461bcd60e51b815260206004820152601b60248201527f536174696369206b656e6469207572756e756e7520616c616d617a0000000000604482015260640161028f565b600154600382015460028301546040516323b872dd60e01b81523360048201526001600160a01b03928316602482015260448101919091529116906323b872dd906064016020604051808303815f875af1158015610819573d5f803e3d5ffd5b505050506040513d601f19601f8201168201806040525081019061083d9190610bda565b61087b5760405162461bcd60e51b815260206004820152600f60248201526e27b232b6b2903130b9b0b934b9b4bd60891b604482015260640161028f565b60025460038201546001830154604051632142170760e11b81526001600160a01b03928316600482015233602482015260448101919091529116906342842e0e906064015f604051808303815f87803b1580156108d6575f80fd5b505af11580156108e8573d5f803e3d5ffd5b50505050600381018054600160a01b60ff60a01b19821617909155815460018301546002840154604080519384526020840192909252908201526001600160a01b0390911660608201523360808201527fcda49bed0b4d5259001ac996cd2c612579e058520024fef40eb5be59b726763f9060a0016106ba565b61096a61099f565b6001600160a01b03811661099357604051631e4fbdf760e01b81525f600482015260240161028f565b61099c81610a1f565b50565b5f546001600160a01b031633146104ba5760405163118cdaa760e01b815233600482015260240161028f565b6109d3610ada565b5f805460ff60a01b191690557f5db9ee0a495bf2e6ff9c91a7834c1ba4fdd244a5e8aa4e537bd38aeae4b073aa335b6040516001600160a01b03909116815260200160405180910390a1565b5f80546001600160a01b038381166001600160a01b0319831681178455604051919092169283917f8be0079c531659141344cd1fd0a4f28419497f9722a3daafe3b4186f6b6457e09190a35050565b610a76610ab0565b5f805460ff60a01b1916600160a01b1790557f62e78cea01bee320cd4e420270b5ea74000d11b0c9f74754ebdbfc544b05a258610a023390565b5f54600160a01b900460ff16156104ba5760405163d93c066560e01b815260040160405180910390fd5b5f54600160a01b900460ff166104ba57604051638dfc202b60e01b815260040160405180910390fd5b5f8060408385031215610b14575f80fd5b50508035926020909101359150565b5f60208284031215610b33575f80fd5b5035919050565b6001600160a01b038116811461099c575f80fd5b5f60208284031215610b5e575f80fd5b8135610b6981610b3a565b9392505050565b602080825260119082015270155c9d5b881b595d98dd5d08191959da5b607a1b604082015260600190565b5f60208284031215610bab575f80fd5b8151610b6981610b3a565b5f60018201610bd357634e487b7160e01b5f52601160045260245ffd5b5060010190565b5f60208284031215610bea575f80fd5b81518015158114610b69575f80fdfea2646970667358221220ce54f61d9bb470fb31760d1296a469c87830e5cf13780f1778a5cd8880d3b97664736f6c63430008180033",
  "linkReferences": {},
  "deployedLinkReferences": {}
}