{
  "_format": "hh-sol-artifact-1",
  "contractName": "MyNFT",
  "sourceName": "contracts/MyNFT.sol",
  "abi": [
    {
      "inputs": [],
      "stateMutability": "nonpayable",
      "type": "constructor"
    },
    {
      "inputs": [
        {
          "internalType": "address",
          "name": "sender",
          "type": "address"
        },
        {
          "internalType": "uint256",
          "name": "tokenId",
          "type": "uint256"
        },
        {
          "internalType": "address",
          "name": "owner",
          "type": "address"
        }
      ],
      "name": "ERC721IncorrectOwner",
      "type": "error"
    },
    {
      "inputs": [
        {
          "internalType": "address",
          "name": "operator",
          "type": "address"
        },
        {
          "internalType": "uint256",
          "name": "tokenId",
          "type": "uint256"
        }
      ],
      "name": "ERC721InsufficientApproval",
      "type": "error"
    },
    {
      "inputs": [
        {
          "internalType": "address",
          "name": "approver",
          "type": "address"
        }
      ],
      "name": "ERC721InvalidApprover",
      "type": "error"
    },
    {
      "inputs": [
        {
          "internalType": "address",
          "name": "operator",
          "type": "address"
        }
      ],
      "name": "ERC721InvalidOperator",
      "type": "error"
    },
    {
      "inputs": [
        {
          "internalType": "address",
          "name": "owner",
          "type": "address"
        }
      ],
      "name": "ERC721InvalidOwner",
      "type": "error"
    },
    {
      "inputs": [
        {
          "internalType": "address",
          "name": "receiver",
          "type": "address"
        }
      ],
      "name": "ERC721InvalidReceiver",
      "type": "error"
    },
    {
      "inputs": [
        {
          "internalType": "address",
          "name": "sender",
          "type": "address"
        }
      ],
      "name": "ERC721InvalidSender",
      "type": "error"
    },
    {
      "inputs": [
        {
          "internalType": "uint256",
          "name": "tokenId",
          "type": "uint256"
        }
      ],
      "name": "ERC721NonexistentToken",
      "type": "error"
    },
    {
      "inputs": [
        {
          "internalType": "address",
          "name": "owner",
          "type": "address"
        }
      ],
      "name": "OwnableInvalidOwner",
      "type": "error"
    },
    {
      "inputs": [
        {
          "internalType": "address",
          "name": "account",
          "type": "address"
        }
      ],
      "name": "OwnableUnauthorizedAccount",
      "type": "error"
    },
    {
      "anonymous": false,
      "inputs": [
        {
          "indexed": true,
          "internalType": "address",
          "name": "owner",
          "type": "address"
        },
        {
          "indexed": true,
          "internalType": "address",
          "name": "approved",
          "type": "address"
        },
        {
          "indexed": true,
          "internalType": "uint256",
          "name": "tokenId",
          "type": "uint256"
        }
      ],
      "name": "Approval",
      "type": "event"
    },
    {
      "anonymous": false,
      "inputs": [
        {
          "indexed": true,
          "internalType": "address",
          "name": "owner",
          "type": "address"
        },
        {
          "indexed": true,
          "internalType": "address",
          "name": "operator",
          "type": "address"
        },
        {
          "indexed": false,
          "internalType": "bool",
          "name": "approved",
          "type": "bool"
        }
      ],
      "name": "ApprovalForAll",
      "type": "event"
    },
    {
      "anonymous": false,
      "inputs": [
        {
          "indexed": false,
          "internalType": "uint256",
          "name": "_fromTokenId",
          "type": "uint256"
        },
        {
          "indexed": false,
          "internalType": "uint256",
          "name": "_toTokenId",
          "type": "uint256"
        }
      ],
      "name": "BatchMetadataUpdate",
      "type": "event"
    },
    {
      "anonymous": false,
      "inputs": [
        {
          "indexed": false,
          "internalType": "uint256",
          "name": "_tokenId",
          "type": "uint256"
        }
      ],
      "name": "MetadataUpdate",
      "type": "event"
    },
    {
      "anonymous": false,
      "inputs": [
        {
          "indexed": true,
          "internalType": "address",
          "name": "previousOwner",
          "type": "address"
        },
        {
          "indexed": true,
          "internalType": "address",
          "name": "newOwner",
          "type": "address"
        }
      ],
      "name": "OwnershipTransferred",
      "type": "event"
    },
    {
      "anonymous": false,
      "inputs": [
        {
          "indexed": true,
          "internalType": "address",
          "name": "from",
          "type": "address"
        },
        {
          "indexed": true,
          "internalType": "address",
          "name": "to",
          "type": "address"
        },
        {
          "indexed": true,
          "internalType": "uint256",
          "name": "tokenId",
          "type": "uint256"
        }
      ],
      "name": "Transfer",
      "type": "event"
    },
    {
      "inputs": [
        {
          "internalType": "address",
          "name": "to",
          "type": "address"
        },
        {
          "internalType": "uint256",
          "name": "tokenId",
          "type": "uint256"
        }
      ],
      "name": "approve",
      "outputs": [],
      "stateMutability": "nonpayable",
      "type": "function"
    },
    {
      "inputs": [
        {
          "internalType": "address",
          "name": "owner",
          "type": "address"
        }
      ],
      "name": "balanceOf",
      "outputs": [
        {
          "internalType": "uint256",
          "name": "",
          "type": "uint256"
        }
      ],
      "stateMutability": "view",
      "type": "function"
    },
    {
      "inputs": [
        {
          "internalType": "uint256",
          "name": "tokenId",
          "type": "uint256"
        }
      ],
      "name": "getApproved",
      "outputs": [
        {
          "internalType": "address",
          "name": "",
          "type": "address"
        }
      ],
      "stateMutability": "view",
      "type": "function"
    },
    {
      "inputs": [
        {
          "internalType": "address",
          "name": "owner",
          "type": "address"
        },
        {
          "internalType": "address",
          "name": "operator",
          "type": "address"
        }
      ],
      "name": "isApprovedForAll",
      "outputs": [
        {
          "internalType": "bool",
          "name": "",
          "type": "bool"
        }
      ],
      "stateMutability": "view",
      "type": "function"
    },
    {
      "inputs": [
        {
          "internalType": "address",
          "name": "to",
          "type": "address"
        },
        {
          "internalType": "string",
          "name": "tokenURI",
          "type": "string"
        }
      ],
      "name": "mintNFT",
      "outputs": [],
      "stateMutability": "nonpayable",
      "type": "function"
    },
    {
      "inputs": [],
      "name": "name",
      "outputs": [
        {
          "internalType": "string",
          "name": "",
          "type": "string"
        }
      ],
      "stateMutability": "view",
      "type": "function"
    },
    {
      "inputs": [],
      "name": "nextTokenId",
      "outputs": [
        {
          "internalType": "uint256",
          "name": "",
          "type": "uint256"
        }
      ],
      "stateMutability": "view",
      "type": "function"
    },
    {
      "inputs": [],
      "name": "owner",
      "outputs": [
        {
          "internalType": "address",
          "name": "",
          "type": "address"
        }
      ],
      "stateMutability": "view",
      "type": "function"
    },
    {
      "inputs": [
        {
          "internalType": "uint256",
          "name": "tokenId",
          "type": "uint256"
        }
      ],
      "name": "ownerOf",
      "outputs": [
        {
          "internalType": "address",
          "name": "",
          "type": "address"
        }
      ],
      "stateMutability": "view",
      "type": "function"
    },
    {
      "inputs": [],
      "name": "renounceOwnership",
      "outputs": [],
      "stateMutability": "nonpayable",
      "type": "function"
    },
    {
      "inputs": [
        {
          "internalType": "address",
          "name": "from",
          "type": "address"
        },
        {
          "internalType": "address",
          "name": "to",
          "type": "address"
        },
        {
          "internalType": "uint256",
          "name": "tokenId",
          "type": "uint256"
        }
      ],
      "name": "safeTransferFrom",
      "outputs": [],
      "stateMutability": "nonpayable",
      "type": "function"
    },
    {
      "inputs": [
        {
          "internalType": "address",
          "name": "from",
          "type": "address"
        },
        {
          "internalType": "address",
          "name": "to",
          "type": "address"
        },
        {
          "internalType": "uint256",
          "name": "tokenId",
          "type": "uint256"
        },
        {
          "internalType": "bytes",
          "name": "data",
          "type": "bytes"
        }
      ],
      "name": "safeTransferFrom",
      "outputs": [],
      "stateMutability": "nonpayable",
      "type": "function"
    },
    {
      "inputs": [
        {
          "internalType": "address",
          "name": "operator",
          "type": "address"
        },
        {
          "internalType": "bool",
          "name": "approved",
          "type": "bool"
        }
      ],
      "name": "setApprovalForAll",
      "outputs": [],
      "stateMutability": "nonpayable",
      "type": "function"
    },
    {
      "inputs": [
        {
          "internalType": "bytes4",
          "name": "interfaceId",
          "type": "bytes4"
        }
      ],
      "name": "supportsInterface",
      "outputs": [
        {
          "internalType": "bool",
          "name": "",
          "type": "bool"
        }
      ],
      "stateMutability": "view",
      "type": "function"
    },
    {
      "inputs": [],
      "name": "symbol",
      "outputs": [
        {
          "internalType": "string",
          "name": "",
          "type": "string"
        }
      ],
      "stateMutability": "view",
      "type": "function"
    },
    {
      "inputs": [
        {
          "internalType": "uint256",
          "name": "tokenId",
          "type": "uint256"
        }
      ],
      "name": "tokenURI",
      "outputs": [
        {
          "internalType": "string",
          "name": "",
          "type": "string"
        }
      ],
      "stateMutability": "view",
      "type": "function"
    },
    {
      "inputs": [
        {
          "internalType": "address",
          "name": "from",
          "type": "address"
        },
        {
          "internalType": "address",
          "name": "to",
          "type": "address"
        },
        {
          "internalType": "uint256",
          "name": "tokenId",
          "type": "uint256"
        }
      ],
      "name": "transferFrom",
      "outputs": [],
      "stateMutability": "nonpayable",
      "type": "function"
    },
    {
      "inputs": [
        {
          "internalType": "address",
          "name": "newOwner",
          "type": "address"
        }
      ],
      "name": "transferOwnership",
      "outputs": [],
      "stateMutability": "nonpayable",
      "type": "function"
    }
  ],
  "bytecode": "0x608060405234801562000010575f80fd5b50336040518060400160405280600d81526020016c111a5a9a5d185b0814d85b985d609a1b815250604051806040016040528060058152602001641114d3919560da1b815250815f9081620000669190620001a7565b506001620000758282620001a7565b5050506001600160a01b038116620000a657604051631e4fbdf760e01b81525f600482015260240160405180910390fd5b620000b181620000b8565b5062000273565b600780546001600160a01b038381166001600160a01b0319831681179093556040519116919082907f8be0079c531659141344cd1fd0a4f28419497f9722a3daafe3b4186f6b6457e0905f90a35050565b634e487b7160e01b5f52604160045260245ffd5b600181811c908216806200013257607f821691505b6020821081036200015157634e487b7160e01b5f52602260045260245ffd5b50919050565b601f821115620001a257805f5260205f20601f840160051c810160208510156200017e5750805b601f840160051c820191505b818110156200019f575f81556001016200018a565b50505b505050565b81516001600160401b03811115620001c357620001c362000109565b620001db81620001d484546200011d565b8462000157565b602080601f83116001811462000211575f8415620001f95750858301515b5f19600386901b1c1916600185901b1785556200026b565b5f85815260208120601f198616915b82811015620002415788860151825594840194600190910190840162000220565b50858210156200025f57878501515f19600388901b60f8161c191681555b505060018460011b0185555b505050505050565b61140680620002815f395ff3fe608060405234801561000f575f80fd5b5060043610610111575f3560e01c806375794a3c1161009e578063b88d4fde1161006e578063b88d4fde14610229578063c87b56dd1461023c578063e985e9c51461024f578063eacabe1414610262578063f2fde38b14610275575f80fd5b806375794a3c146101f45780638da5cb5b146101fd57806395d89b411461020e578063a22cb46514610216575f80fd5b806323b872dd116100e457806323b872dd1461019257806342842e0e146101a55780636352211e146101b857806370a08231146101cb578063715018a6146101ec575f80fd5b806301ffc9a71461011557806306fdde031461013d578063081812fc14610152578063095ea7b31461017d575b5f80fd5b610128610123366004610f03565b610288565b60405190151581526020015b60405180910390f35b6101456102b2565b6040516101349190610f6b565b610165610160366004610f7d565b610341565b6040516001600160a01b039091168152602001610134565b61019061018b366004610faf565b610368565b005b6101906101a0366004610fd7565b610377565b6101906101b3366004610fd7565b610405565b6101656101c6366004610f7d565b610424565b6101de6101d9366004611010565b61042e565b604051908152602001610134565b610190610473565b6101de60085481565b6007546001600160a01b0316610165565b610145610486565b610190610224366004611029565b610495565b6101906102373660046110e9565b6104a0565b61014561024a366004610f7d565b6104b8565b61012861025d366004611160565b610539565b610190610270366004611191565b610566565b610190610283366004611010565b61059e565b5f6001600160e01b03198216632483248360e11b14806102ac57506102ac826105db565b92915050565b60605f80546102c0906111ef565b80601f01602080910402602001604051908101604052809291908181526020018280546102ec906111ef565b80156103375780601f1061030e57610100808354040283529160200191610337565b820191905f5260205f20905b81548152906001019060200180831161031a57829003601f168201915b5050505050905090565b5f61034b8261062a565b505f828152600460205260409020546001600160a01b03166102ac565b610373828233610662565b5050565b6001600160a01b0382166103a557604051633250574960e11b81525f60048201526024015b60405180910390fd5b5f6103b183833361066f565b9050836001600160a01b0316816001600160a01b0316146103ff576040516364283d7b60e01b81526001600160a01b038086166004830152602482018490528216604482015260640161039c565b50505050565b61041f83838360405180602001604052805f8152506104a0565b505050565b5f6102ac8261062a565b5f6001600160a01b038216610458576040516322718ad960e21b81525f600482015260240161039c565b506001600160a01b03165f9081526003602052604090205490565b61047b610761565b6104845f61078e565b565b6060600180546102c0906111ef565b6103733383836107df565b6104ab848484610377565b6103ff33858585856108a6565b60606104c38261062a565b505f6104d960408051602081019091525f815290565b90505f6104e5846109ce565b905081515f036104f6579392505050565b805115610528578181604051602001610510929190611227565b60405160208183030381529060405292505050919050565b61053184610a6d565b949350505050565b6001600160a01b039182165f90815260056020908152604080832093909416825291909152205460ff1690565b61056e610761565b60085461057b8382610ade565b6105858183610af7565b60088054905f61059483611255565b9190505550505050565b6105a6610761565b6001600160a01b0381166105cf57604051631e4fbdf760e01b81525f600482015260240161039c565b6105d88161078e565b50565b5f6001600160e01b031982166380ac58cd60e01b148061060b57506001600160e01b03198216635b5e139f60e01b145b806102ac57506301ffc9a760e01b6001600160e01b03198316146102ac565b5f818152600260205260408120546001600160a01b0316806102ac57604051637e27328960e01b81526004810184905260240161039c565b61041f8383836001610b46565b5f828152600260205260408120546001600160a01b039081169083161561069b5761069b818486610c4a565b6001600160a01b038116156106d5576106b65f855f80610b46565b6001600160a01b0381165f90815260036020526040902080545f190190555b6001600160a01b03851615610703576001600160a01b0385165f908152600360205260409020805460010190555b5f8481526002602052604080822080546001600160a01b0319166001600160a01b0389811691821790925591518793918516917fddf252ad1be2c89b69c2b068fc378daa952ba7f163c4a11628f55a4df523b3ef91a4949350505050565b6007546001600160a01b031633146104845760405163118cdaa760e01b815233600482015260240161039c565b600780546001600160a01b038381166001600160a01b0319831681179093556040519116919082907f8be0079c531659141344cd1fd0a4f28419497f9722a3daafe3b4186f6b6457e0905f90a35050565b6001600160a01b0383166108085760405163a9fbf51f60e01b81525f600482015260240161039c565b6001600160a01b03821661083a57604051630b61174360e31b81526001600160a01b038316600482015260240161039c565b6001600160a01b038381165f81815260056020908152604080832094871680845294825291829020805460ff191686151590811790915591519182527f17307eab39ab6107e8899845ad3d59bd9653f200f220920489ca2b5937696c31910160405180910390a3505050565b6001600160a01b0383163b156109c757604051630a85bd0160e11b81526001600160a01b0384169063150b7a02906108e8908890889087908790600401611279565b6020604051808303815f875af1925050508015610922575060408051601f3d908101601f1916820190925261091f918101906112b5565b60015b610989573d80801561094f576040519150601f19603f3d011682016040523d82523d5f602084013e610954565b606091505b5080515f0361098157604051633250574960e11b81526001600160a01b038516600482015260240161039c565b805160208201fd5b6001600160e01b03198116630a85bd0160e11b146109c557604051633250574960e11b81526001600160a01b038516600482015260240161039c565b505b5050505050565b5f8181526006602052604090208054606091906109ea906111ef565b80601f0160208091040260200160405190810160405280929190818152602001828054610a16906111ef565b8015610a615780601f10610a3857610100808354040283529160200191610a61565b820191905f5260205f20905b815481529060010190602001808311610a4457829003601f168201915b50505050509050919050565b6060610a788261062a565b505f610a8e60408051602081019091525f815290565b90505f815111610aac5760405180602001604052805f815250610ad7565b80610ab684610cae565b604051602001610ac7929190611227565b6040516020818303038152906040525b9392505050565b610373828260405180602001604052805f815250610d3e565b5f828152600660205260409020610b0e8282611314565b506040518281527ff8e1a15aba9398e019f0b49df1a4fde98ee17ae345cb5f6b5e2c27f5033e8ce79060200160405180910390a15050565b8080610b5a57506001600160a01b03821615155b15610c1b575f610b698461062a565b90506001600160a01b03831615801590610b955750826001600160a01b0316816001600160a01b031614155b8015610ba85750610ba68184610539565b155b15610bd15760405163a9fbf51f60e01b81526001600160a01b038416600482015260240161039c565b8115610c195783856001600160a01b0316826001600160a01b03167f8c5be1e5ebec7d5bd14f71427d1e84f3dd0314c0f7b2291e5b200ac8c7c3b92560405160405180910390a45b505b50505f90815260046020526040902080546001600160a01b0319166001600160a01b0392909216919091179055565b610c55838383610d55565b61041f576001600160a01b038316610c8357604051637e27328960e01b81526004810182905260240161039c565b60405163177e802f60e01b81526001600160a01b03831660048201526024810182905260440161039c565b60605f610cba83610db6565b60010190505f8167ffffffffffffffff811115610cd957610cd9611062565b6040519080825280601f01601f191660200182016040528015610d03576020820181803683370190505b5090508181016020015b5f19016f181899199a1a9b1b9c1cb0b131b232b360811b600a86061a8153600a8504945084610d0d57509392505050565b610d488383610e8d565b61041f335f8585856108a6565b5f6001600160a01b038316158015906105315750826001600160a01b0316846001600160a01b03161480610d8e5750610d8e8484610539565b806105315750505f908152600460205260409020546001600160a01b03908116911614919050565b5f8072184f03e93ff9f4daa797ed6e38ed64bf6a1f0160401b8310610df45772184f03e93ff9f4daa797ed6e38ed64bf6a1f0160401b830492506040015b6d04ee2d6d415b85acef81000000008310610e20576d04ee2d6d415b85acef8100000000830492506020015b662386f26fc100008310610e3e57662386f26fc10000830492506010015b6305f5e1008310610e56576305f5e100830492506008015b6127108310610e6a57612710830492506004015b60648310610e7c576064830492506002015b600a83106102ac5760010192915050565b6001600160a01b038216610eb657604051633250574960e11b81525f600482015260240161039c565b5f610ec283835f61066f565b90506001600160a01b0381161561041f576040516339e3563760e11b81525f600482015260240161039c565b6001600160e01b0319811681146105d8575f80fd5b5f60208284031215610f13575f80fd5b8135610ad781610eee565b5f5b83811015610f38578181015183820152602001610f20565b50505f910152565b5f8151808452610f57816020860160208601610f1e565b601f01601f19169290920160200192915050565b602081525f610ad76020830184610f40565b5f60208284031215610f8d575f80fd5b5035919050565b80356001600160a01b0381168114610faa575f80fd5b919050565b5f8060408385031215610fc0575f80fd5b610fc983610f94565b946020939093013593505050565b5f805f60608486031215610fe9575f80fd5b610ff284610f94565b925061100060208501610f94565b9150604084013590509250925092565b5f60208284031215611020575f80fd5b610ad782610f94565b5f806040838503121561103a575f80fd5b61104383610f94565b915060208301358015158114611057575f80fd5b809150509250929050565b634e487b7160e01b5f52604160045260245ffd5b5f67ffffffffffffffff8084111561109057611090611062565b604051601f8501601f19908116603f011681019082821181831017156110b8576110b8611062565b816040528093508581528686860111156110d0575f80fd5b858560208301375f602087830101525050509392505050565b5f805f80608085870312156110fc575f80fd5b61110585610f94565b935061111360208601610f94565b925060408501359150606085013567ffffffffffffffff811115611135575f80fd5b8501601f81018713611145575f80fd5b61115487823560208401611076565b91505092959194509250565b5f8060408385031215611171575f80fd5b61117a83610f94565b915061118860208401610f94565b90509250929050565b5f80604083850312156111a2575f80fd5b6111ab83610f94565b9150602083013567ffffffffffffffff8111156111c6575f80fd5b8301601f810185136111d6575f80fd5b6111e585823560208401611076565b9150509250929050565b600181811c9082168061120357607f821691505b60208210810361122157634e487b7160e01b5f52602260045260245ffd5b50919050565b5f8351611238818460208801610f1e565b83519083019061124c818360208801610f1e565b01949350505050565b5f6001820161127257634e487b7160e01b5f52601160045260245ffd5b5060010190565b6001600160a01b03858116825284166020820152604081018390526080606082018190525f906112ab90830184610f40565b9695505050505050565b5f602082840312156112c5575f80fd5b8151610ad781610eee565b601f82111561041f57805f5260205f20601f840160051c810160208510156112f55750805b601f840160051c820191505b818110156109c7575f8155600101611301565b815167ffffffffffffffff81111561132e5761132e611062565b6113428161133c84546111ef565b846112d0565b602080601f831160018114611375575f841561135e5750858301515b5f19600386901b1c1916600185901b1785556109c5565b5f85815260208120601f198616915b828110156113a357888601518255948401946001909101908401611384565b50858210156113c057878501515f19600388901b60f8161c191681555b5050505050600190811b0190555056fea26469706673582212205d535706bad4424d4522ff72e8d516268f710d2acbf9a6ffe0b945865a03db2964736f6c63430008180033",
  "linkReferences": {},
  "deployedLinkReferences": {}
}