{
  "_format": "hh-sol-artifact-1",
  "contractName": "SecureToken",
  "sourceName": "contracts/SecureToken.sol",
  "abi": [
    {
      "inputs": [
        {
          "internalType": "uint256",
          "name": "initialSupply",
          "type": "uint256"
        }
      ],
      "stateMutability": "nonpayable",
      "type": "constructor"
    },
    {
      "inputs": [
        {
          "internalType": "address",
          "name": "spender",
          "type": "address"
        },
        {
          "internalType": "uint256",
          "name": "allowance",
          "type": "uint256"
        },
        {
          "internalType": "uint256",
          "name": "needed",
          "type": "uint256"
        }
      ],
      "name": "ERC20InsufficientAllowance",
      "type": "error"
    },
    {
      "inputs": [
        {
          "internalType": "address",
          "name": "sender",
          "type": "address"
        },
        {
          "internalType": "uint256",
          "name": "balance",
          "type": "uint256"
        },
        {
          "internalType": "uint256",
          "name": "needed",
          "type": "uint256"
        }
      ],
      "name": "ERC20InsufficientBalance",
      "type": "error"
    },
    {
      "inputs": [
        {
          "internalType": "address",
          "name": "approver",
          "type": "address"
        }
      ],
      "name": "ERC20InvalidApprover",
      "type": "error"
    },
    {
      "inputs": [
        {
          "internalType": "address",
          "name": "receiver",
          "type": "address"
        }
      ],
      "name": "ERC20InvalidReceiver",
      "type": "error"
    },
    {
      "inputs": [
        {
          "internalType": "address",
          "name": "sender",
          "type": "address"
        }
      ],
      "name": "ERC20InvalidSender",
      "type": "error"
    },
    {
      "inputs": [
        {
          "internalType": "address",
          "name": "spender",
          "type": "address"
        }
      ],
      "name": "ERC20InvalidSpender",
      "type": "error"
    },
    {
      "inputs": [],
      "name": "EnforcedPause",
      "type": "error"
    },
    {
      "inputs": [],
      "name": "ExpectedPause",
      "type": "error"
    },
    {
      "inputs": [
        {
          "internalType": "address",
          "name": "owner",
          "type": "address"
        }
      ],
      "name": "OwnableInvalidOwner",
      "type": "error"
    },
    {
      "inputs": [
        {
          "internalType": "address",
          "name": "account",
          "type": "address"
        }
      ],
      "name": "OwnableUnauthorizedAccount",
      "type": "error"
    },
    {
      "anonymous": false,
      "inputs": [
        {
          "indexed": true,
          "internalType": "address",
          "name": "owner",
          "type": "address"
        },
        {
          "indexed": true,
          "internalType": "address",
          "name": "spender",
          "type": "address"
        },
        {
          "indexed": false,
          "internalType": "uint256",
          "name": "value",
          "type": "uint256"
        }
      ],
      "name": "Approval",
      "type": "event"
    },
    {
      "anonymous": false,
      "inputs": [
        {
          "indexed": true,
          "internalType": "address",
          "name": "previousOwner",
          "type": "address"
        },
        {
          "indexed": true,
          "internalType": "address",
          "name": "newOwner",
          "type": "address"
        }
      ],
      "name": "OwnershipTransferred",
      "type": "event"
    },
    {
      "anonymous": false,
      "inputs": [
        {
          "indexed": false,
          "internalType": "address",
          "name": "account",
          "type": "address"
        }
      ],
      "name": "Paused",
      "type": "event"
    },
    {
      "anonymous": false,
      "inputs": [
        {
          "indexed": true,
          "internalType": "address",
          "name": "from",
          "type": "address"
        },
        {
          "indexed": true,
          "internalType": "address",
          "name": "to",
          "type": "address"
        },
        {
          "indexed": false,
          "internalType": "uint256",
          "name": "value",
          "type": "uint256"
        }
      ],
      "name": "Transfer",
      "type": "event"
    },
    {
      "anonymous": false,
      "inputs": [
        {
          "indexed": false,
          "internalType": "address",
          "name": "account",
          "type": "address"
        }
      ],
      "name": "Unpaused",
      "type": "event"
    },
    {
      "inputs": [
        {
          "internalType": "address",
          "name": "owner",
          "type": "address"
        },
        {
          "internalType": "address",
          "name": "spender",
          "type": "address"
        }
      ],
      "name": "allowance",
      "outputs": [
        {
          "internalType": "uint256",
          "name": "",
          "type": "uint256"
        }
      ],
      "stateMutability": "view",
      "type": "function"
    },
    {
      "inputs": [
        {
          "internalType": "address",
          "name": "spender",
          "type": "address"
        },
        {
          "internalType": "uint256",
          "name": "value",
          "type": "uint256"
        }
      ],
      "name": "approve",
      "outputs": [
        {
          "internalType": "bool",
          "name": "",
          "type": "bool"
        }
      ],
      "stateMutability": "nonpayable",
      "type": "function"
    },
    {
      "inputs": [
        {
          "internalType": "address",
          "name": "account",
          "type": "address"
        }
      ],
      "name": "balanceOf",
      "outputs": [
        {
          "internalType": "uint256",
          "name": "",
          "type": "uint256"
        }
      ],
      "stateMutability": "view",
      "type": "function"
    },
    {
      "inputs": [
        {
          "internalType": "uint256",
          "name": "value",
          "type": "uint256"
        }
      ],
      "name": "burn",
      "outputs": [],
      "stateMutability": "nonpayable",
      "type": "function"
    },
    {
      "inputs": [
        {
          "internalType": "address",
          "name": "account",
          "type": "address"
        },
        {
          "internalType": "uint256",
          "name": "value",
          "type": "uint256"
        }
      ],
      "name": "burnFrom",
      "outputs": [],
      "stateMutability": "nonpayable",
      "type": "function"
    },
    {
      "inputs": [],
      "name": "decimals",
      "outputs": [
        {
          "internalType": "uint8",
          "name": "",
          "type": "uint8"
        }
      ],
      "stateMutability": "view",
      "type": "function"
    },
    {
      "inputs": [
        {
          "internalType": "address",
          "name": "to",
          "type": "address"
        },
        {
          "internalType": "uint256",
          "name": "amount",
          "type": "uint256"
        }
      ],
      "name": "mint",
      "outputs": [],
      "stateMutability": "nonpayable",
      "type": "function"
    },
    {
      "inputs": [],
      "name": "name",
      "outputs": [
        {
          "internalType": "string",
          "name": "",
          "type": "string"
        }
      ],
      "stateMutability": "view",
      "type": "function"
    },
    {
      "inputs": [],
      "name": "owner",
      "outputs": [
        {
          "internalType": "address",
          "name": "",
          "type": "address"
        }
      ],
      "stateMutability": "view",
      "type": "function"
    },
    {
      "inputs": [],
      "name": "pause",
      "outputs": [],
      "stateMutability": "nonpayable",
      "type": "function"
    },
    {
      "inputs": [],
      "name": "paused",
      "outputs": [
        {
          "internalType": "bool",
          "name": "",
          "type": "bool"
        }
      ],
      "stateMutability": "view",
      "type": "function"
    },
    {
      "inputs": [],
      "name": "renounceOwnership",
      "outputs": [],
      "stateMutability": "nonpayable",
      "type": "function"
    },
    {
      "inputs": [],
      "name": "symbol",
      "outputs": [
        {
          "internalType": "string",
          "name": "",
          "type": "string"
        }
      ],
      "stateMutability": "view",
      "type": "function"
    },
    {
      "inputs": [],
      "name": "totalSupply",
      "outputs": [
        {
          "internalType": "uint256",
          "name": "",
          "type": "uint256"
        }
      ],
      "stateMutability": "view",
      "type": "function"
    },
    {
      "inputs": [
        {
          "internalType": "address",
          "name": "to",
          "type": "address"
        },
        {
          "internalType": "uint256",
          "name": "value",
          "type": "uint256"
        }
      ],
      "name": "transfer",
      "outputs": [
        {
          "internalType": "bool",
          "name": "",
          "type": "bool"
        }
      ],
      "stateMutability": "nonpayable",
      "type": "function"
    },
    {
      "inputs": [
        {
          "internalType": "address",
          "name": "from",
          "type": "address"
        },
        {
          "internalType": "address",
          "name": "to",
          "type": "address"
        },
        {
          "internalType": "uint256",
          "name": "value",
          "type": "uint256"
        }
      ],
      "name": "transferFrom",
      "outputs": [
        {
          "internalType": "bool",
          "name": "",
          "type": "bool"
        }
      ],
      "stateMutability": "nonpayable",
      "type": "function"
    },
    {
      "inputs": [
        {
          "internalType": "address",
          "name": "newOwner",
          "type": "address"
        }
      ],
      "name": "transferOwnership",
      "outputs": [],
      "stateMutability": "nonpayable",
      "type": "function"
    },
    {
      "inputs": [],
      "name": "unpause",
      "outputs": [],
      "stateMutability": "nonpayable",
      "type": "function"
    }
  ],
  "bytecode": "0x608060405234801562000010575f80fd5b5060405162000f6938038062000f69833981016040819052620000339162000304565b336040518060400160405280601381526020017f44696a6974616c2050617a617220546f6b656e000000000000000000000000008152506040518060400160405280600381526020016211141560ea1b8152508160039081620000979190620003b9565b506004620000a68282620003b9565b5050506001600160a01b038116620000d857604051631e4fbdf760e01b81525f60048201526024015b60405180910390fd5b620000e381620000f7565b50620000f0338262000148565b50620004ab565b600580546001600160a01b038381166001600160a01b0319831681179093556040519116919082907f8be0079c531659141344cd1fd0a4f28419497f9722a3daafe3b4186f6b6457e0905f90a35050565b6001600160a01b038216620001735760405163ec442f0560e01b81525f6004820152602401620000cf565b620001805f838362000184565b5050565b6200018e620001a0565b6200019b838383620001d5565b505050565b620001b4600554600160a01b900460ff1690565b15620001d35760405163d93c066560e01b815260040160405180910390fd5b565b6001600160a01b03831662000203578060025f828254620001f7919062000485565b90915550620002759050565b6001600160a01b0383165f9081526020819052604090205481811015620002575760405163391434e360e21b81526001600160a01b03851660048201526024810182905260448101839052606401620000cf565b6001600160a01b0384165f9081526020819052604090209082900390555b6001600160a01b0382166200029357600280548290039055620002b1565b6001600160a01b0382165f9081526020819052604090208054820190555b816001600160a01b0316836001600160a01b03167fddf252ad1be2c89b69c2b068fc378daa952ba7f163c4a11628f55a4df523b3ef83604051620002f791815260200190565b60405180910390a3505050565b5f6020828403121562000315575f80fd5b5051919050565b634e487b7160e01b5f52604160045260245ffd5b600181811c908216806200034557607f821691505b6020821081036200036457634e487b7160e01b5f52602260045260245ffd5b50919050565b601f8211156200019b57805f5260205f20601f840160051c81016020851015620003915750805b601f840160051c820191505b81811015620003b2575f81556001016200039d565b5050505050565b81516001600160401b03811115620003d557620003d56200031c565b620003ed81620003e6845462000330565b846200036a565b602080601f83116001811462000423575f84156200040b5750858301515b5f19600386901b1c1916600185901b1785556200047d565b5f85815260208120601f198616915b82811015620004535788860151825594840194600190910190840162000432565b50858210156200047157878501515f19600388901b60f8161c191681555b505060018460011b0185555b505050505050565b80820180821115620004a557634e487b7160e01b5f52601160045260245ffd5b92915050565b610ab080620004b95f395ff3fe608060405234801561000f575f80fd5b5060043610610111575f3560e01c806370a082311161009e5780638da5cb5b1161006e5780638da5cb5b1461021757806395d89b4114610232578063a9059cbb1461023a578063dd62ed3e1461024d578063f2fde38b14610285575f80fd5b806370a08231146101cc578063715018a6146101f457806379cc6790146101fc5780638456cb591461020f575f80fd5b8063313ce567116100e4578063313ce5671461017b5780633f4ba83a1461018a57806340c10f191461019457806342966c68146101a75780635c975abb146101ba575f80fd5b806306fdde0314610115578063095ea7b31461013357806318160ddd1461015657806323b872dd14610168575b5f80fd5b61011d610298565b60405161012a91906108f3565b60405180910390f35b61014661014136600461095a565b610328565b604051901515815260200161012a565b6002545b60405190815260200161012a565b610146610176366004610982565b610341565b6040516012815260200161012a565b610192610364565b005b6101926101a236600461095a565b610376565b6101926101b53660046109bb565b61038c565b600554600160a01b900460ff16610146565b61015a6101da3660046109d2565b6001600160a01b03165f9081526020819052604090205490565b610192610399565b61019261020a36600461095a565b6103aa565b6101926103bf565b6005546040516001600160a01b03909116815260200161012a565b61011d6103cf565b61014661024836600461095a565b6103de565b61015a61025b3660046109f2565b6001600160a01b039182165f90815260016020908152604080832093909416825291909152205490565b6101926102933660046109d2565b6103eb565b6060600380546102a790610a23565b80601f01602080910402602001604051908101604052809291908181526020018280546102d390610a23565b801561031e5780601f106102f55761010080835404028352916020019161031e565b820191905f5260205f20905b81548152906001019060200180831161030157829003601f168201915b5050505050905090565b5f3361033581858561042a565b60019150505b92915050565b5f3361034e85828561043c565b6103598585856104b8565b506001949350505050565b61036c610515565b610374610542565b565b61037e610515565b6103888282610597565b5050565b61039633826105cb565b50565b6103a1610515565b6103745f6105ff565b6103b582338361043c565b61038882826105cb565b6103c7610515565b610374610650565b6060600480546102a790610a23565b5f336103358185856104b8565b6103f3610515565b6001600160a01b03811661042157604051631e4fbdf760e01b81525f60048201526024015b60405180910390fd5b610396816105ff565b6104378383836001610693565b505050565b6001600160a01b038381165f908152600160209081526040808320938616835292905220545f198110156104b257818110156104a457604051637dc7a0d960e11b81526001600160a01b03841660048201526024810182905260448101839052606401610418565b6104b284848484035f610693565b50505050565b6001600160a01b0383166104e157604051634b637e8f60e11b81525f6004820152602401610418565b6001600160a01b03821661050a5760405163ec442f0560e01b81525f6004820152602401610418565b610437838383610765565b6005546001600160a01b031633146103745760405163118cdaa760e01b8152336004820152602401610418565b61054a610778565b6005805460ff60a01b191690557f5db9ee0a495bf2e6ff9c91a7834c1ba4fdd244a5e8aa4e537bd38aeae4b073aa335b6040516001600160a01b03909116815260200160405180910390a1565b6001600160a01b0382166105c05760405163ec442f0560e01b81525f6004820152602401610418565b6103885f8383610765565b6001600160a01b0382166105f457604051634b637e8f60e11b81525f6004820152602401610418565b610388825f83610765565b600580546001600160a01b038381166001600160a01b0319831681179093556040519116919082907f8be0079c531659141344cd1fd0a4f28419497f9722a3daafe3b4186f6b6457e0905f90a35050565b6106586107a2565b6005805460ff60a01b1916600160a01b1790557f62e78cea01bee320cd4e420270b5ea74000d11b0c9f74754ebdbfc544b05a25861057a3390565b6001600160a01b0384166106bc5760405163e602df0560e01b81525f6004820152602401610418565b6001600160a01b0383166106e557604051634a1406b160e11b81525f6004820152602401610418565b6001600160a01b038085165f90815260016020908152604080832093871683529290522082905580156104b257826001600160a01b0316846001600160a01b03167f8c5be1e5ebec7d5bd14f71427d1e84f3dd0314c0f7b2291e5b200ac8c7c3b9258460405161075791815260200190565b60405180910390a350505050565b61076d6107a2565b6104378383836107cd565b600554600160a01b900460ff1661037457604051638dfc202b60e01b815260040160405180910390fd5b600554600160a01b900460ff16156103745760405163d93c066560e01b815260040160405180910390fd5b6001600160a01b0383166107f7578060025f8282546107ec9190610a5b565b909155506108679050565b6001600160a01b0383165f90815260208190526040902054818110156108495760405163391434e360e21b81526001600160a01b03851660048201526024810182905260448101839052606401610418565b6001600160a01b0384165f9081526020819052604090209082900390555b6001600160a01b038216610883576002805482900390556108a1565b6001600160a01b0382165f9081526020819052604090208054820190555b816001600160a01b0316836001600160a01b03167fddf252ad1be2c89b69c2b068fc378daa952ba7f163c4a11628f55a4df523b3ef836040516108e691815260200190565b60405180910390a3505050565b5f602080835283518060208501525f5b8181101561091f57858101830151858201604001528201610903565b505f604082860101526040601f19601f8301168501019250505092915050565b80356001600160a01b0381168114610955575f80fd5b919050565b5f806040838503121561096b575f80fd5b6109748361093f565b946020939093013593505050565b5f805f60608486031215610994575f80fd5b61099d8461093f565b92506109ab6020850161093f565b9150604084013590509250925092565b5f602082840312156109cb575f80fd5b5035919050565b5f602082840312156109e2575f80fd5b6109eb8261093f565b9392505050565b5f8060408385031215610a03575f80fd5b610a0c8361093f565b9150610a1a6020840161093f565b90509250929050565b600181811c90821680610a3757607f821691505b602082108103610a5557634e487b7160e01b5f52602260045260245ffd5b50919050565b8082018082111561033b57634e487b7160e01b5f52601160045260245ffdfea264697066735822122088b90d75f78dc1bf2cda6e73d10ce437bfbea912d899abff8d771917067dd8ee64736f6c63430008180033",
  "linkReferences": {},
  "deployedLinkReferences": {}
}